:100000000C945D000C9485000C9485000C94850084
:100010000C9485000C9485000C9485000C9485004C
:100020000C9485000C9485000C9485000C9485003C
:100030000C9485000C9485000C9485000C9485002C
:100040000C947C020C9485000C94EC020C94C60277
:100050000C9485000C9485000C9485000C9485000C
:100060000C9485000C94850000000008000201003B
:100070000003040700000000000000000000000072
:10008000250028002B0000000000240027002A0083
:10009000040404040404040402020202020203032E
:1000A0000303030301020408102040800102040836
:1000B0001020010204081020930711241FBECFEF67
:1000C000D8E0DEBFCDBF22E0A8EDB1E001C01D92B7
:1000D000A238B207E1F711E0A0E0B1E0E4EFF3E10C
:1000E00002C005900D92A83DB107D9F710E0CDE50B
:1000F000D0E004C02197FE010E94F707CC35D1075C
:10010000C9F70E941E030C94F8090C94000090E0BB
:10011000FC01EC55FF4F249180579F4FFC018491C7
:10012000882399F090E0880F991FFC01EA57FF4F50
:10013000A591B491FC01E458FF4F859194918FB73C
:10014000F894EC91E22BEC938FBF0895AF92BF929D
:10015000CF92DF92EF92FF920F931F93CF93DF9393
:100160006C017B018B01040F151FEB015E01AE18C2
:10017000BF08C017D10759F06991D601ED91FC91E4
:100180000190F081E02DC6010995892B79F7C50111
:10019000DF91CF911F910F91FF90EF90DF90CF9063
:1001A000BF90AF900895FC01538D448D252F30E012
:1001B000842F90E0821B930B541710F0CF96089574
:1001C00001970895FC01918D828D981761F0A28DA1
:1001D000AE0FBF2FB11D5D968C91928D9F5F9F7367
:1001E000928F90E008958FEF9FEF08952FB7F894C6
:1001F0008091DD019091DE01A091DF01B091E001DD
:100200002FBF8093E9019093EA01A093EB01B09393
:10021000EC0181EE91E00E94E20097FF26C02FB72B
:10022000F8948091DD019091DE01A091DF01B09101
:10023000E0012FBF4091E9015091EA016091EB018B
:100240007091EC01841B950BA60BB70B4091E50157
:100250005091E6016091E7017091E80184179507DC
:10026000A607B707B0F28FEF9FEF0895FC01918DBD
:10027000828D981731F0828DE80FF11D858D90E009
:1002800008958FEF9FEF0895FC01918D228D892FA6
:1002900090E0805C9F4F821B91098F73992708958E
:1002A00081EE91E00E94440121E0892B09F420E0D5
:1002B000822F089580E090E0892B29F00E94500160
:1002C00081110C9400000895FC01A48DA80FB92F92
:1002D000B11DA35ABF4F2C91848D90E001968F736E
:1002E0009927848FA689B7892C93A089B1898C918D
:1002F000837080648C93938D848D981306C00288DC
:10030000F389E02D80818F7D80830895EF92FF92A5
:100310000F931F93CF93DF93EC0181E0888F9B8D28
:100320008C8D98131AC0E889F989808185FF15C0E2
:100330009FB7F894EE89FF896083E889F989808105
:100340008370806480839FBF81E090E0DF91CF91D4
:100350001F910F91FF90EF900895F62E0B8D10E0F6
:100360000F5F1F4F0F731127E02E8C8D8E110CC065
:100370000FB607FCFACFE889F989808185FFF5CFB0
:10038000CE010E946401F1CFEB8DEC0FFD2FF11D2A
:10039000E35AFF4FF0829FB7F8940B8FEA89FB89ED
:1003A00080818062CFCFCF93DF93EC01888D88234B
:1003B000B9F0AA89BB89E889F9898C9185FD03C0C8
:1003C000808186FD0DC00FB607FCF7CF8C9185FFAD
:1003D000F2CF808185FFEDCFCE010E946401E9CF8D
:1003E000DF91CF91089590E0FC01E859FF4F2491EF
:1003F000FC01EC55FF4F3491FC01E057FF4FE491B5
:10040000EE23C9F0222339F0233001F1A8F4213082
:1004100019F1223029F1F0E0EE0FFF1FE458FF4FF1
:10042000A591B4918FB7F894EC91611126C03095E5
:100430003E233C938FBF08952730A9F02830C9F0A0
:10044000243049F7809180008F7D03C08091800027
:100450008F7780938000DFCF84B58F7784BDDBCF2B
:1004600084B58F7DFBCF8091B0008F778093B000F3
:10047000D2CF8091B0008F7DF9CF3E2BDACFFC0137
:1004800024813581232B39F421E0FB0180818823ED
:1004900049F020E007C0808191810E94E80921E0B5
:1004A000892BB9F7822F08950F931F93CF93DF9372
:1004B000EC0188819981009759F02A813B812617A8
:1004C000370730F081E0DF91CF911F910F910895B0
:1004D0008B016F5F7F4F0E942209009759F099832B
:1004E00088831B830A832C813D81232B59F7FC01D0
:1004F0001082E8CF80E0E7CF1F920F920FB60F92E5
:1005000011242F933F938F939F93AF93BF93809129
:10051000DD019091DE01A091DF01B091E001309109
:10052000DC0123E0230F2D3758F50196A11DB11DE5
:100530002093DC018093DD019093DE01A093DF0125
:10054000B093E0018091D8019091D901A091DA0196
:10055000B091DB010196A11DB11D8093D80190934C
:10056000D901A093DA01B093DB01BF91AF919F91C4
:100570008F913F912F910F900FBE0F901F90189564
:1005800026E8230F0296A11DB11DD2CF1F920F9214
:100590000FB60F9211242F933F934F935F936F9356
:1005A0007F938F939F93AF93BF93EF93FF9381EECE
:1005B00091E00E946401FF91EF91BF91AF919F91F3
:1005C0008F917F916F915F914F913F912F910F90FC
:1005D0000FBE0F901F9018951F920F920FB60F929B
:1005E00011242F938F939F93EF93FF93E091F10149
:1005F000F091F2018081E091F701F091F80182FD24
:100600001BC090818091FA018F5F8F732091FB0155
:10061000821741F0E091FA01F0E0EF51FE4F958F23
:100620008093FA01FF91EF919F918F912F910F90FD
:100630000FBE0F901F9018958081F4CFCF93DF935A
:10064000CDB7DEB728970FB6F894DEBF0FBECDBF8B
:10065000789484B5826084BD84B5816084BD85B59D
:10066000826085BD85B5816085BD80916E008160A9
:1006700080936E001092810080918100826080934F
:100680008100809181008160809381008091800051
:100690008160809380008091B10084608093B1007C
:1006A0008091B00081608093B00080917A00846076
:1006B00080937A0080917A00826080937A008091A2
:1006C0007A00816080937A0080917A0080688093BC
:1006D0007A001092C100E091F101F091F20182E004
:1006E0008083E091ED01F091EE011082E091EF0145
:1006F000F091F0018FEC80831092F901E091F50107
:10070000F091F60186E08083E091F301F091F4012D
:10071000808180618083E091F301F091F401808118
:1007200088608083E091F301F091F401808180681A
:100730008083E091F301F091F40180818F7D8083CB
:100740008DE00E9487008CE00E9487008BE00E9471
:1007500087008AE00E94870089E00E94870080E08D
:10076000E82E80E0F82E81EE91E00E9444011816F8
:1007700019060CF0CCC31A8219821C821B821E82BD
:100780001D8270E060E0CE0101960E945402298132
:100790003A8181112EC02115310519F0C9010E943D
:1007A00099081A8219821E821D821C821B820E9455
:1007B000F60097FD26C08A30910519F18F831886BF
:1007C0000D811E810F5F1F4FB801CE0101960E945F
:1007D0005402882361F329813A818D819E81BE0173
:1007E000695F7F4F820F931F0E94F1091E830D8363
:1007F000DECF1E821D826DE171E0C9010E94F10908
:10080000D6CF68E171E0CE0101960E943F028823B5
:10081000A1F060E08DE00E94F30160E08CE00E94B6
:10082000F30160E08BE00E94F30160E08AE00E9447
:10083000F30160E089E00E94F3016EE171E0CE0116
:1008400001960E943F028823A1F060E08DE00E94A3
:10085000F30160E08CE00E94F30160E08BE00E9415
:10086000F30160E08AE00E94F30161E089E00E9408
:10087000F30164E271E0CE0101960E943F028823F9
:10088000A1F060E08DE00E94F30160E08CE00E9446
:10089000F30160E08BE00E94F30161E08AE00E94D6
:1008A000F30160E089E00E94F3016AE271E0CE01A9
:1008B00001960E943F028823A1F060E08DE00E9433
:1008C000F30160E08CE00E94F30160E08BE00E94A5
:1008D000F30161E08AE00E94F30161E089E00E9497
:1008E000F30160E371E0CE0101960E943F0288238C
:1008F000A1F060E08DE00E94F30160E08CE00E94D6
:10090000F30161E08BE00E94F30160E08AE00E9465
:10091000F30160E089E00E94F30166E371E0CE013B
:1009200001960E943F028823A1F060E08DE00E94C2
:10093000F30160E08CE00E94F30161E08BE00E9433
:10094000F30160E08AE00E94F30161E089E00E9427
:10095000F3016CE371E0CE0101960E943F0288230F
:10096000A1F060E08DE00E94F30160E08CE00E9465
:10097000F30161E08BE00E94F30161E08AE00E94F4
:10098000F30160E089E00E94F30162E471E0CE01CE
:1009900001960E943F028823A1F060E08DE00E9452
:1009A000F30160E08CE00E94F30161E08BE00E94C3
:1009B000F30161E08AE00E94F30161E089E00E94B6
:1009C000F30168E471E0CE0101960E943F028823A2
:1009D000A1F060E08DE00E94F30161E08CE00E94F4
:1009E000F30160E08BE00E94F30160E08AE00E9486
:1009F000F30160E089E00E94F3016EE471E0CE0152
:100A000001960E943F028823A1F060E08DE00E94E1
:100A1000F30161E08CE00E94F30160E08BE00E9452
:100A2000F30160E08AE00E94F30161E089E00E9446
:100A3000F30164E571E0CE0101960E943F02882334
:100A4000A1F060E08DE00E94F30161E08CE00E9483
:100A5000F30160E08BE00E94F30161E08AE00E9414
:100A6000F30160E089E00E94F3016AE571E0CE01E4
:100A700001960E943F028823A1F060E08DE00E9471
:100A8000F30161E08CE00E94F30160E08BE00E94E2
:100A9000F30161E08AE00E94F30161E089E00E94D5
:100AA000F30160E671E0CE0101960E943F028823C7
:100AB000A1F060E08DE00E94F30161E08CE00E9413
:100AC000F30161E08BE00E94F30160E08AE00E94A4
:100AD000F30160E089E00E94F30166E671E0CE0177
:100AE00001960E943F028823A1F060E08DE00E9401
:100AF000F30161E08CE00E94F30161E08BE00E9471
:100B0000F30160E08AE00E94F30161E089E00E9465
:100B1000F3016CE671E0CE0101960E943F0288234A
:100B2000A1F060E08DE00E94F30161E08CE00E94A2
:100B3000F30161E08BE00E94F30161E08AE00E9432
:100B4000F30160E089E00E94F30162E771E0CE0109
:100B500001960E943F028823A1F060E08DE00E9490
:100B6000F30161E08CE00E94F30161E08BE00E9400
:100B7000F30161E08AE00E94F30161E089E00E94F4
:100B8000F30168E771E0CE0101960E943F028823DD
:100B9000A1F061E08DE00E94F30160E08CE00E9432
:100BA000F30160E08BE00E94F30160E08AE00E94C4
:100BB000F30160E089E00E94F3016EE771E0CE018D
:100BC00001960E943F028823A1F061E08DE00E941F
:100BD000F30160E08CE00E94F30160E08BE00E9492
:100BE000F30160E08AE00E94F30161E089E00E9485
:100BF000F30164E871E0CE0101960E943F02882370
:100C0000A1F061E08DE00E94F30160E08CE00E94C1
:100C1000F30160E08BE00E94F30161E08AE00E9452
:100C2000F30160E089E00E94F3016AE871E0CE011F
:100C300001960E943F028823A1F061E08DE00E94AE
:100C4000F30160E08CE00E94F30160E08BE00E9421
:100C5000F30161E08AE00E94F30161E089E00E9413
:100C6000F30160E971E0CE0101960E943F02882302
:100C7000A1F061E08DE00E94F30160E08CE00E9451
:100C8000F30161E08BE00E94F30160E08AE00E94E2
:100C9000F30160E089E00E94F30166E971E0CE01B2
:100CA00001960E943F028823A1F061E08DE00E943E
:100CB000F30160E08CE00E94F30161E08BE00E94B0
:100CC000F30160E08AE00E94F30161E089E00E94A4
:100CD000F3016CE971E0CE0101960E943F02882386
:100CE000A1F061E08DE00E94F30160E08CE00E94E1
:100CF000F30161E08BE00E94F30161E08AE00E9471
:100D0000F30160E089E00E94F30162EA71E0CE0144
:100D100001960E943F028823A1F061E08DE00E94CD
:100D2000F30160E08CE00E94F30161E08BE00E943F
:100D3000F30161E08AE00E94F30161E089E00E9432
:100D4000F30168EA71E0CE0101960E943F02882318
:100D5000A1F061E08DE00E94F30161E08CE00E946F
:100D6000F30160E08BE00E94F30160E08AE00E9402
:100D7000F30160E089E00E94F3016EEA71E0CE01C8
:100D800001960E943F028823A1F061E08DE00E945D
:100D9000F30161E08CE00E94F30160E08BE00E94CF
:100DA000F30160E08AE00E94F30161E089E00E94C3
:100DB000F30164EB71E0CE0101960E943F028823AB
:100DC000A1F061E08DE00E94F30161E08CE00E94FF
:100DD000F30160E08BE00E94F30161E08AE00E9491
:100DE000F30160E089E00E94F3016AEB71E0CE015B
:100DF00001960E943F028823A1F061E08DE00E94ED
:100E0000F30161E08CE00E94F30160E08BE00E945E
:100E1000F30161E08AE00E94F30161E089E00E9451
:100E2000F30160EC71E0CE0101960E943F0288233D
:100E3000A1F061E08DE00E94F30161E08CE00E948E
:100E4000F30161E08BE00E94F30160E08AE00E9420
:100E5000F30160E089E00E94F30166EC71E0CE01ED
:100E600001960E943F028823A1F061E08DE00E947C
:100E7000F30161E08CE00E94F30161E08BE00E94ED
:100E8000F30160E08AE00E94F30161E089E00E94E2
:100E9000F3016CEC71E0CE0101960E943F028823C1
:100EA000A1F061E08DE00E94F30161E08CE00E941E
:100EB000F30161E08BE00E94F30161E08AE00E94AF
:100EC000F30160E089E00E94F30162ED71E0CE0180
:100ED00001960E943F028823A1F061E08DE00E940C
:100EE000F30161E08CE00E94F30161E08BE00E947D
:100EF000F30161E08AE00E94F30161E089E00E9471
:100F0000F30189819A81009711F00E949908E114F8
:100F1000F10409F428CC0E945001882309F423CC61
:100F20000E94000020CCE1EEF1E01382128288EEF4
:100F300093E0A0E0B0E084839583A683B7838AE042
:100F400091E09183808385EC90E09587848784ECA1
:100F500090E09787868780EC90E0918B808B81EC86
:100F600090E0938B828B82EC90E0958B848B86EC67
:100F700090E0978B868B118E128E138E148E0895AF
:100F80002F923F924F925F926F927F928F929F9299
:100F9000AF92BF92CF92DF92EF92FF920F931F9387
:100FA000CF93DF93CDB7DEB7CA1BDB0B0FB6F89438
:100FB000DEBF0FBECDBF09942A88398848885F8478
:100FC0006E847D848C849B84AA84B984C884DF80E9
:100FD000EE80FD800C811B81AA81B981CE0FD11DCD
:100FE0000FB6F894DEBF0FBECDBFED010895EE0F32
:100FF000FF1F0590F491E02D09940F931F93CF9359
:10100000DF938230910510F482E090E0E09180025D
:10101000F091810230E020E0B0E0A0E0309799F458
:101020002115310509F44AC0281B390B243031053C
:10103000D8F58A819B816115710589F1FB01938344
:101040008283FE0111C040815181028113814817C2
:101050005907E0F04817590799F4109761F0129674
:101060000C93129713961C933296CF01DF91CF9178
:101070001F910F9108950093800210938102F4CF85
:101080002115310551F04217530738F0A901DB0152
:101090009A01BD01DF01F801C1CFEF01F9CF9093B3
:1010A000810280938002CDCFFE01E20FF31F819376
:1010B00091932250310939832883D7CF20917E0222
:1010C00030917F02232B41F42091020130910301E2
:1010D00030937F0220937E02209100013091010124
:1010E0002115310541F42DB73EB7409104015091CF
:1010F0000501241B350BE0917E02F0917F02E2177F
:10110000F307A0F42E1B3F0B2817390778F0AC012A
:101110004E5F5F4F2417350748F04E0F5F1F509307
:101120007F0240937E02819391939FCFF0E0E0E0B5
:101130009CCFCF93DF930097E9F0FC0132971382A5
:101140001282A0918002B0918102ED0130E020E096
:101150001097A1F420813181820F931F20917E028C
:1011600030917F022817390709F061C0F0937F02A0
:10117000E0937E02DF91CF910895EA01CE17DF0759
:10118000E8F54A815B819E0141155105B1F7E901FE
:10119000FB83EA8349915991C40FD51FEC17FD07D2
:1011A00061F4808191810296840F951FE9019983F2
:1011B0008883828193819B838A83F0E0E0E01296AA
:1011C0008D919C9113970097B9F52D913C911197B2
:1011D000CD010296820F931F20917E0230917F02F3
:1011E0002817390739F6309751F51092810210927D
:1011F0008002B0937F02A0937E02BCCFD383C283D0
:1012000040815181840F951FC817D90761F44E5F43
:101210005F4F88819981480F591F518340838A818C
:101220009B81938382832115310509F0B0CFF09320
:101230008102E09380029ECFFD01DC01C0CF1382CA
:101240001282D7CFB0E0A0E0E8E2F9E00C94C20748
:101250008C01009751F4CB010E94FD078C01C8015D
:10126000CDB7DEB7E0E10C94DE07FC01E60FF71F17
:101270009C0122503109E217F30708F49DC0D901FF
:10128000CD91DC911197C617D70798F0C530D105DD
:1012900030F3CE0104978617970708F3C61BD70BC8
:1012A0002297C193D1936D937C93CF010E949908AB
:1012B000D6CF5B01AC1ABD0A4C018C0E9D1EA091CD
:1012C0008002B0918102512C412CF12CE12C10971D
:1012D00031F580917E0290917F028815990509F081
:1012E0005CC04616570608F058C0809100019091E6
:1012F0000101009741F48DB79EB7409104015091D0
:101300000501841B950BE817F90708F055C0F09309
:101310007F02E0937E02F90171836083A0CF8D91FB
:101320009C91119712966C90129713967C9013973C
:10133000A815B90559F56C0142E0C40ED11CCA14B8
:10134000DB0420F1AC014A195B09DA01129615970A
:1013500080F06282738251834083D9016D937C93C4
:10136000E114F10471F0D7011396FC93EE931297F8
:1013700076CF22968C0F9D1FF90191838083F30114
:10138000EFCFF0938102E093800269CF48165906AF
:1013900008F42C017D01D3019ACFCB010E94FD07F7
:1013A0007C01009749F0AE01B8010E94DF09C80135
:1013B0000E949908870153CF10E000E050CFFB0155
:1013C000DC0102C001900D9241505040D8F70895C1
:1013D000FB01DC018D91019080190110D9F3990B6B
:1013E0000895FB01DC0101900D920020E1F70895C2
:0413F000F894FFCF9F
:1013F400000082028000000000008601A600D300E5
:10140400D3014401E2003601303030303000303056
:101414003030310030303031300030303031310054
:101424003030313030003030313031003030313113
:101434003000303031313100303130303000303133
:101444003030310030313031300030313031310022
:1014540030313130300030313130310030313131E0
:101464003000303131313100313030303000313002
:1014740030303100313030313000313030313100F2
:1014840031303130300031303130310031303131B0
:1014940030003130313131003131303030003131D0
:1014A40030303100313130313000313130313100C0
:1014B400313131303000313131303100313131317D
:0814C4003000313131313100FB
:00000001FF
